:020000040800F2
:10000000B00800205D01000891110008951000085B
:1000100000000000000000000000000000000000E0
:100020000000000000000000000000007113000844
:100030000000000000000000931100087B1300087E
:100040006F010008000000006F0100086F01000848
:100050006F0100086F0100086F010008E504000847
:10006000000000006F0100086F0100086F01000828
:100070006F0100086F0100086F0100080000000018
:100080006F0100086F0100086F0100086F01000890
:100090006F0100086F0100086F0100086F01000880
:1000A0006F0100086F0100086F0100086F01000870
:1000B0006F0100086F01000800F002F800F03EF840
:1000C0000CA030C8083824182D18A246671EAB466D
:1000D00054465D46AC4201D100F030F87E460F3EFA
:1000E0000FCCB6460126334200D0FB1AA246AB46DF
:1000F000334318474C2300006C230000103A02D30E
:1001000078C878C1FAD8520701D330C830C101D5B8
:1001100004680C60704700000023002400250026BE
:10012000103A01D378C1FBD8520700D330C100D5B3
:100130000B6070471FB51FBD10B510BD00F086F9EC
:100140001146FFF7F7FF01F079FF00F09EF903B4C5
:10015000FFF7F2FF03BC00F04DF9000007488047AD
:1001600007480047FEE7FEE7FEE7FEE7FEE7FEE79B
:1001700004480549054A064B70470000EB13000888
:10018000B9000008B0020020B0080020B004002030
:10019000B004002010B5002000F032F9FFF7CCFFCA
:1001A000012000F027F910BD01E004C0091F042957
:1001B000FBD28B0701D50280801CC90700D00270DA
:1001C000704700290BD0C30702D00270401C491EA3
:1001D000022904D3830702D50280801C891EE3E72D
:1001E0000022EEE70022DFE7002203098B422CD336
:1001F000030A8B4211D300239C464EE003460B4377
:100200003CD4002243088B4231D303098B421CD3D8
:10021000030A8B4201D394463FE0C3098B4201D3CA
:10022000CB01C01A524183098B4201D38B01C01A02
:10023000524143098B4201D34B01C01A5241030979
:100240008B4201D30B01C01A5241C3088B4201D328
:10025000CB00C01A524183088B4201D38B00C01AD5
:10026000524143088B4201D34B00C01A5241411AFC
:1002700000D201465241104670475DE0CA0F00D0DF
:100280004942031000D34042534000229C460309D8
:100290008B422DD3030A8B4212D3FC22890112BA5E
:1002A000030A8B420CD3890192118B4208D3890136
:1002B00092118B4204D389013AD0921100E089094E
:1002C000C3098B4201D3CB01C01A524183098B422F
:1002D00001D38B01C01A524143098B4201D34B0118
:1002E000C01A524103098B4201D30B01C01A52417B
:1002F000C3088B4201D3CB00C01A524183088B4202
:1003000001D38B00C01A5241D9D243088B4201D38A
:100310004B00C01A5241411A00D201466346524175
:100320005B10104601D34042002B00D54942704774
:1003300063465B1000D3404201B50020C046C04672
:1003400002BD70477047704710B501469E240002F9
:10035000CA15A307002A02D01843002A04DBA21AF8
:10036000002A0CDDD04010BD1206120E01D1400053
:100370004008A21A03D4D04040420028F3DDFF22F7
:1003800048001206904201D9002010BDC817C04392
:10039000584010BD1F22030C02D10F2200041CD0B4
:1003A000030E01D10002083A030F01D10001121F10
:1003B000830F01D18000921E002801DB4000521EF5
:1003C000D2055118021251181922904004D3491C29
:1003D000002801D14908490008467047C10FC907E4
:1003E00000D04042012292071143D3E7012189073F
:1003F000D0E7000001491820ABBEFEE7260002004E
:1004000010B500F00BF800F002F810BD704710B501
:10041000002801D0FFF7EEFF10BD000010B500214D
:1004200002A000F03AF8012010BD000053494741F6
:100430004252543A2041626E6F726D616C20746555
:10044000726D696E6174696F6E000000754600F030
:1004500045F8AE46050069465346C008C0008546CB
:1004600018B020B5FFF784FE60BC00274908B646E7
:100470000026C0C5C0C5C0C5C0C5C0C5C0C5C0C5B3
:10048000C0C5403D49008D46704710B50446C04682
:10049000C0462046FFF75BFE10BD70B505460C4612
:1004A0000A2000E06D1C00F012F8002D06D028781C
:1004B0000028F7D102E0641C00F009F8002C02D0FB
:1004C00020780028F7D10A2000F001F870BD08B5A7
:1004D000694608700320ABBE08BD000000487047A5
:1004E0004C02002010B5202000F028F810BD0000BC
:1004F0004109074A890089180968C206D20E0120FD
:100500009040014201D00120704700207047000058
:1005100000E100E070B5044600F0DAF80546601C22
:1005200002D004480078241800F0D2F8401BA04202
:10053000FAD370BD000000207047000070B5084D70
:100540000446E868204203D0EC60204600F00AF838
:100550002869204203D02C612046FFF7EDFF70BDD3
:100560000018024070470000F0B5002303249AE011
:100570002A4601259D402A407ED00E79B607B60F47
:10058000012E01D0022E16D186682746B4465E00A1
:10059000B646B7406646BE43B446CF687646B740D7
:1005A0006646374387604668AE430D79ED06ED0F2A
:1005B0009D40354345600D79ED43AD0708D0C568D2
:1005C0005F002646BE40B5438E68BE402E43C660DF
:1005D0000D79AD07AD0F022D0ED1DD08AD002D1840
:1005E000AC462D6A5E07F60E0F27B740BD430F6974
:1005F000B7402F4365462F6205685F002646BE4020
:10060000B5430E79B607B60FBE402E4306604D685F
:10061000AD03AD0F46D09E08264DB6007519AC4609
:100620002D6E9E07F60E0F27B740BD4305273F07E7
:10063000B84201D100270FE01F4FB84201D1012776
:100640000AE01E4FB84201D1022705E01C4FB84214
:1006500001D1032700E00527B7402F43154D66461B
:1006600037662D684E689543F60200D51543114F45
:100670003D607D68954300E014E04E68B60200D509
:1006800015437D600B4D80356E684F689643BF0300
:1006900000D516436E602E684F689643FF0300D561
:1006A00016432E605B1C0A681546DA4000D05FE7EF
:1006B000F0BD000000180240000400500008005087
:1006C000000C0050002A01D08161704781627047A0
:1006D00001488068704700000000002002488168DF
:1006E00002788918816070470000002010B5084822
:1006F00000240168821511430160032000F00AF80C
:10070000002801D0012401E000F028F8204610BDA7
:100710000020024070B50F4E0024317805460029B4
:1007200015D07D20C000FFF75FFD01460A48006834
:10073000FFF75AFD00F096FC002808D1042D06D2E0
:1007400000222946401E00F02BF8756000E00124CD
:10075000204670BD000000200C00002008B50948AC
:1007600001680122114301600068104000900548B3
:100770004038C26B01040A43C263C06B084000905A
:1007800008BD000040100240002805DBC106C90E6C
:1007900001208840014908607047000000E100E046
:1007A00010B500F023FE10BD10B50F4C21680322D8
:1007B0005202914301432160C11FFF39FA390ED122
:1007C0000A480621006848430949FFF70DFD401C0F
:1007D00002E0002805D0401E61694905F9D40020D7
:1007E00010BD032010BD0000007000400C00002070
:1007F00040420F00F8B50F46060043D04D4D286823
:100800004007400FB84213D22868C008C0003843E0
:100810002860FFF75DFF044605E0FFF759FF011B65
:100820004548814261D828684007400FB842F4D15A
:100830003068424C81070DD5400704D5A0680721D8
:1008400009030843A060A0680F2109028843B1682A
:100850000843A0603078C00732D0706801280AD001
:1008600002280BD000280FD03449403103280ED085
:10087000C969890704E02168890301E021688901C9
:10088000002906DB0120F8BD21684905F8E7096A5F
:10089000EFE7A168C908C9000143A160FFF718FF8D
:1008A000009006E0FFF714FF0099411A22488142A8
:1008B0001BD8A068382108407168C9008842F1D16E
:1008C00028684007400FB84217D91A480168C9087C
:1008D000C90039430160FFF7FBFE054607E0FFF75B
:1008E000F7FE411B1448814201D90320F8BD11488D
:1008F00000684007400FB842F1D13078400706D574
:10090000A068072109038843F1680843A06000F04C
:100910001DF8A1683C2289091140094A515CC906A9
:10092000C90EC8400749086007480068FFF7F2FE93
:10093000F8BD0000002002408813000000100240B3
:10094000F02300080C0000200400002010B5204C0B
:10095000A068204A8006400F16D0A0688006410F8C
:10096000501001290FD0A1688906490F022912D021
:10097000A0688006400F042823D0A0688006400F9E
:10098000032821D0002010BD206801218004400FE1
:100990008140104612E0E1688B07E1689B0F490631
:1009A000490F491C032B00D01046FFF71DFCE168DE
:1009B0004904490E4843E168490F491CFFF714FCFC
:1009C00010BD0120C00310BD7D20000210BD00003D
:1009D000001002400024F400F8B504007ED0207816
:1009E0003827C007E94D002846D0A868E968384094
:1009F0008907890F102802D008280BD001E00329AD
:100A000008D001206268000482420AD129680143AB
:100A1000296015E0286880032ED560680028DDD0A5
:100A20002AE0052301211B0489049A422A6802D185
:100A30000A432A60EAE782432A60286888432860DC
:100A4000606800280CD0FFF743FE064604E0FFF77D
:100A50003FFE801B642873D828688003F7D50BE01D
:100A6000FFF736FE064604E0FFF732FE801B6428DF
:100A7000F1D828688003F7D42078800769D5A86862
:100A8000E96838408A070721920FC902102802D06E
:100A9000002813D001E0022A10D0E068002846D0D8
:100AA000286888432169084328602868FF210131AC
:100AB00008432860FFF70CFE06462CE02A68520522
:100AC00002D5E268002A89D06A687F231B029A4314
:100AD00063691B021A436A60002800E08DE00ED1B2
:100AE0002868884321690843286028680121800418
:100AF000400F8140A648FFF777FBA6490860A6484B
:100B00000068FFF707FE002877D122E0FFF7E0FD3D
:100B1000801B02289FD828684005F7D568687F2188
:100B200009028843616909020843686011E0296885
:100B3000FF20013081432960FFF7CAFD064605E02A
:100B400098E0FFF7C5FD801B022884D8286840057F
:100B5000F7D42078914E00072ED5A8688006400F64
:100B600003280AD0A0690028306A16D00121084362
:100B70003062FFF7ADFD07460BE0306A80071BD5FA
:100B8000A06900289FD017E0FFF7A2FDC01B022834
:100B900070D8306A8007F7D50EE040084000306218
:100BA000FFF796FD074604E0FFF792FDC01B022801
:100BB00060D8306A8007F7D4207840076CD5A868E1
:100BC00000278006400F042818D0E86BC00008D426
:100BD000E96B012000070143E963E96B014001274C
:100BE00000916F480168C90519D401688215114345
:100BF0000160FFF76DFD00900DE083E0F069800774
:100C00004AD5A06800287DD046E0FFF761FD009935
:100C1000401A02282ED862480068C005F5D5A168A0
:100C2000012910D004200529F16911D04908490093
:100C3000F161F1698143F161A068002816D0FFF7E6
:100C400047FD00900EE0F06901210843F061F3E7F1
:100C50000143F161F7E7FFF73BFD0099411A514865
:100C6000814265D8F0698007F5D50EE0FFF730FDC9
:100C7000009007E05CE0FFF72BFD0099411A49481E
:100C8000814255D8F0698007F5D4002F04D0E96B74
:100C9000012000078143E963E069002873D0A96857
:100CA0008906490F02294DD00126360602282868F8
:100CB00005D0B0432860FFF70BFD04463AE0B0438F
:100CC0002860FFF705FD074604E0FFF701FDC01BA4
:100CD00002282DD828688001F7D4616A206AA26AA8
:100CE0000843E16A120211430843216B0843E96893
:100CF0002D4A11400843E860286830432860E868BE
:100D0000012100E03DE009070843E860FFF7E0FC4F
:100D1000044604E0FFF7DCFC001B022808D8286822
:100D20008001F7D52FE0FFF7D3FC001B022801D983
:100D30000320F8BD28688001F5D4E8681B49084005
:100D4000E86020E00128F4D0E868226A8107890F72
:100D5000914216D17021626A0140914211D17F21E6
:100D6000A26A09020140120291420AD11F214904DC
:100D7000E26A0140914204D1400F216B4007884252
:100D800001D00120F8BD0020F8BD00000010024095
:100D90000024F4000C000020040000204010024059
:100DA00000700040881300008C80C11FFCFFFEEF24
:100DB0004030407F7047F8B504000CD0606A0025D1
:100DC00000280AD02561656126464036A562707FFD
:100DD000002808D00BE00120F8BD6168C81FFD386D
:100DE000F2D0E561F0E73577204600F05BF80222AB
:100DF0007277206801684023994301600723E16806
:100E00001B02994201D9002001E0012000030F27B5
:100E10003F02B94202D0994200D0A562FF23616827
:100E2000053319402127A368BF023B4019432369BA
:100E30001340227D1943D207D20F11430123A26927
:100E40005B021A401143E26938231A401143226AB7
:100E500080231A401143A26A9B011A401143226861
:100E60001160A1690422090C1140626A10231A4022
:100E70001143626B08231A4011430F23E2681B02DF
:100E80001A401143012212031040014320684160BF
:100E90002068C16952109143C161256601207077B5
:100EA0000020F8BD10B586B0044614216846FFF74F
:100EB00099F91249206888421DD1114802688114AD
:100EC0000A4302600068084005900D484038416BB5
:100ED000012211434163406B694610400590E020B8
:100EE00000900220019000200290039004900520C1
:100EF0000007FFF739FB06B010BD000000300140CD
:100F000040100240FFB5054604464035287F0027C3
:100F100081B01646012809D001202877FFF7D8FBB9
:100F20000090687F012804D0022797E0022005B0D6
:100F3000F0BD0298002874D0002E72D0032068778C
:100F4000002020660299A163A687E6872064A88016
:100F5000E8802065E0640122A068D203402190422D
:100F600008D1206802688A430260206802680B0288
:100F70001A43026020680268520602D402680A43DB
:100F800002600721E06809028842606828D90028C9
:100F900001D0012E1ED1A06B21680088C86006E038
:100FA00020688168890709D5A16B0988C160A06B99
:100FB000801CA063E08F401EE0870BE0FFF788FBFA
:100FC0000099411A0498814202D3401C02D005E0E6
:100FD000002803D0E08F0028E2D128E003273BE07F
:100FE000002801D0012E1FD1A06B21680078087362
:100FF00006E020688168890709D5A16B097801732B
:10100000A06B401CA063E08F401EE0870CE0FFF760
:101010005FFB0099411A0498814203D3401C03D01E
:10102000DCE717E00028D9D0E08F0028E1D1204686
:10103000009A049900F0AEF8002801D02020206624
:10104000A068002803D12068C16880680090206EE5
:10105000002801D0012701E00120687700202877CF
:10106000384664E7094910B5401E884201D901207D
:1010700010BD074C60610321081F00F0B7F9002084
:10108000A06107202061002010BD0000FFFFFF00CD
:1010900000E000E0FEE70000F0B587B014216846EC
:1010A000FFF7A0F82548416B202631434163416B8F
:1010B00031400591416B012529434163416B294032
:1010C0000591416B022421434163406B0022204083
:1010D0000590052029460007FFF7F4FA05200122B4
:1010E00010210007FFF7EEFA002201211448FFF754
:1010F000E9FA112000276A460394A1C20520694637
:101100000007FFF731FA009569460D4802970195EF
:101110000394FFF729FA1120000401906946009614
:1011200002940748FFF720FA002201210720FFF769
:1011300037FB0720FFF728FB07B0F0BD0010024087
:101140000004005010B511480F490160FF2105311E
:10115000416000210722816012020161C260012208
:10116000416152028261016220224162C261816258
:101170000722C262016308214163FFF71CFE0028B9
:1011800001D072B6FEE710BD0030014028000020FB
:10119000FEE77047F8B50F460B461546009203214F
:1011A00004460022C90200F01BF82026002812D1B4
:1011B0003B46002280212046009500F07DF8002863
:1011C00009D103213B46002249022046009500F048
:1011D00007F8002803D0206E304320660320F8BDB6
:1011E000FFB585B00E460446002069460E9D1746A1
:1011F0000871FFF76DFA411B0898451AFFF768FA66
:101200000390206823210C3002902A48006848434C
:10121000000D684346E003204002864206D1002FBD
:1012200004D1029801786846017100790898401C41
:1012300039D0FFF74DFA0399401AA84205D2002D84
:1012400003D0009800282BD02BE020684168E022D2
:10125000914341606068C11FFD390CD10121A06834
:10126000C903884202D04911884204D1206801682C
:101270004022914301600120A16A4003814207D1CD
:1012800021680A6882430A6021680A6802430A608A
:1012900001204034607700202077032009B0F0BDA2
:1012A0000025401E0090206880683040B842B2D1CE
:1012B0000020F3E70C000020FFB581B01E46044675
:1012C0000A9DFFF705FA401B351AFFF701FA07469A
:1012D000264800684001000D684339E0701C38D092
:1012E000FFF7F6F9C01BA84205D2002D03D00098E5
:1012F00000282BD02BE020684168E0229143416018
:101300006068C11FFD390CD10121A068C903884262
:1013100002D04911884204D12068016840229143DB
:1013200001600120A16A4003814207D121680A6857
:1013300082430A6021680A6802430A60012040343F
:10134000607700202077032005B0F0BD0025401E07
:101350000090206881680298884305D00021039896
:101360008142BBD10020EFE70121F8E70C0000200B
:10137000704710B5FFF7CEF810BD10B5FFF7AEF906
:1013800010BD30B591B034216846FEF72BFF002523
:1013900001200D950E950F9540021095FFF704FA68
:1013A0000224E001039000944020059008200A9058
:1013B00080030B900794000304950C900995089402
:1013C0006846FFF709FB002801D072B6FEE7072048
:1013D0000DA931C102210DA81095FFF70BFA0028C5
:1013E00001D072B6FEE711B030BD70478307FF220F
:1013F000DB0E9A408907090E9940002808DB830814
:1014000009489B001B1818689043084318607047F0
:101410000007000F0838830804489B001B18D86990
:1014200090430843D861704700E400E000ED00E01D
:1014300010B5074A074C052808D0092805D1812393
:101440009B010021204600F021FB10BD4023F8E75E
:10145000FFDFFFFF08000B0070B50B4D04460122B3
:101460000021284600F011FD22460021281F00F02F
:101470000CFD02220021284600F007FD0248002151
:10148000083000F05BFB70BD08000B0010B5FF23B7
:101490008133074A0021074800F0E6FA0648044A6B
:1014A00000681F3A037A0021044800F0DDFA10BDFD
:1014B000FFFF000008000B00240000201F001100A7
:1014C0000249014808607047C5210008100000204B
:1014D00010B500F0C9FE10BD10B5002801D000F015
:1014E000D1FD10BD10B500F0D9FD040001D000F011
:1014F000BFFD204610BD000010B500F038FB0549C7
:10150000884205D003491039884201D0881710BDA0
:10151000002010BD1203CADE10B50221442000F0E5
:10152000FFFAC005C00F10BDFEB505283FD0294EFB
:101530002648284D01903F36234A2548254F7735C8
:101540002C4600900021244800F0A9FC22480021EC
:10155000001D019A00F0A3FC1F4800210830009AEA
:1015600000F09DFC1C483A4600210C3000F097FC2E
:10157000194832460021103000F091FC16482A46E6
:101580000021143000F08BFC134822460021183053
:1015900000F085FC1048114A00211C3800F07FFC47
:1015A0000D480F4A0021183800F079FCFEBD0E48A6
:1015B0000E4F0F4D01900E4C0C48C0377F35094A35
:1015C0000B4EBF340090BDE7FEA8020036AC02000F
:1015D000FEA502003EAF02003800030040020010EA
:1015E00089A46D1BFDC001003EC40100BEC6010000
:1015F00036CF0100F0B504460778007989B0182885
:1016000002D8E078182801D9012000E000200690D7
:10161000E07901285DD000200790607801285CD037
:10162000042858D005285CD0072858D0FF2501355C
:10163000A448E0210668308A88433082E07930731C
:10164000617B0120891C884080B20490C00000901A
:10165000FEF7CCFE9C4900F073FEFEF775FE70822B
:10166000207B7075A07B0B210304207B974A0840E8
:1016700000030343207A0021C007800E034307982C
:101680000343102000F002FA0698914E00282AD059
:101690008C48602200685301018A114301828D4AFF
:1016A00000218D4800F0F2F98C4A0021B01F00F0B3
:1016B000F6FB00221146301F00F0F1FB884A0021A2
:1016C000304600F0ECFB7D220021301D00F0F5FBE0
:1016D00038E01020A0E72025AAE74025A8E7482504
:1016E000A6E78025A4E7207B002815D0A17B7D48B4
:1016F00001291BD0002919D0617B4900405A0422DE
:10170000102100F089FC009943064D195B0E764AC2
:101710000221304600F0A8F9FF2D0CDD6948202297
:101720000068018A11430182530106E0617B490090
:10173000405A0322E4E705239B02664A00216648DB
:1017400000F0A4F903256D04A378FC2200212846AB
:1017500000F0B6F904980021401EC2B201204004F6
:1017600000F0ABFB6078072816D0002000F086FB65
:10177000207BC04381075D4810D05D4A002100F006
:101780008EFB594E00219436304600F0D7F9400BBD
:101790004003092F04D005E00820E7E7554AEDE7AC
:1017A000012108432179C906C90C0143E078C0062C
:1017B000000E0843617989074A0F02430021304631
:1017C00000F06DFBA0794C4A830260780021000391
:1017D0000343242000F05AF96089002801D18120B8
:1017E000608182B20221284600F04FFB0925434860
:1017F0002D04092F40D0424A002100F050FB414AFD
:101800000021284600F041FB3C48142201213430DD
:1018100000F053FB39480E220221001F00F04DFB5F
:1018200081220021384800F048FB02220021442098
:1018300000F043FB012000F067FA00251420FFF7B9
:1018400047FE0021442000F089F9800724D5207943
:101850002E4C09380F282BD81A480068407A0128E6
:1018600022D03846FFF760FE19239B02284A002148
:10187000204600F0F9F821E0264A002100F00FFB95
:10188000254A0021284600F000FB1C48234A00217D
:101890000C3800F004FBB7E76D1CEDB23C2DCDD346
:1018A0000020C04309B0F0BD78B2FFF7C1FDDBE70F
:1018B0000023FE221946204600F002F9012000F024
:1018C0000DF9EFE7240000206666663FCF4FFCFF6E
:1018D00012000E00FFE7FFFF08000B0006030000E8
:1018E0000A5A0C003024000880FF00000C0006009B
:1018F0004C585FAFCC355FAFFF0BFFFF1C000700FC
:101900003411071C3C1F00000800090018000300E8
:10191000FF8100003400011C3C0F000033A8B50813
:1019200010B5074B012808D0052805D10122520225
:101930000021184600F0A9FA10BD024AF8E700009D
:10194000040011002218000030B504460023054DA4
:1019500003E0E05C50402A5C5B1C8B42F9DB1046E4
:1019600030BD00004C010020F8B53C4C0646216813
:101970000025CD73022008820D754D758D72CD72D4
:101980008D62CD620D634D63CD638D63FFF7B4FD52
:10199000002801D0681EF8BD0420FFF75DFD00900F
:1019A0000520FFF759FD07460A20FFF755FDC00245
:1019B000C10E206801720098002805D0002F03D0C6
:1019C000002901D0FFF762FD2020FFF745FD2449E3
:1019D000884203D121680120487201E020684572E5
:1019E000F00604D50620FFF737FD21680860B00631
:1019F00004D50720FFF730FD21684860700604D544
:101A00000820FFF729FD21688872300604D50920D7
:101A1000FFF722FD2168C8722068C17A002901D130
:101A20008521C172817A002901D1742181721F2020
:101A3000FFF712FD216848731E20FFF70DFD4106D8
:101A40002068490E817301D12E218173CAB2002111
:101A5000044800F032FA0020F8BD00002400002005
:101A600040020010140009001CB56C462271120AD5
:101A70006271A3711A0AE271034A009289B201AB42
:101A8000042200F029FA1CBD028000003EB56C461D
:101A90002271150A6571150CA571120EE27123727F
:101AA0001A0A62721A0CA2721A0EE272034A0092A9
:101AB00089B201AB082200F00FFA3EBD038000009E
:101AC0001CB56C4622716371034A009289B201AB66
:101AD000022200F001FA1CBD01800000F8B50E4D95
:101AE000044601280BD10021284600F019F80646CB
:101AF000FF230633094A00212846FFF7B5FF00F00F
:101B000075F80746012C05D10023324619462846B0
:101B1000FFF7AAFF3846F8BD48000700FFFF0000A6
:101B200008B589B26B46022200F027F86846407873
:101B3000010268460078081880B208BD38B5002454
:101B400089B26B46042200F018F803216846435C12
:101B50002202D418491EFAD5204638BD08B589B2EC
:101B60006B46012200F009F86846007808BD10B500
:101B700000210846FFF7E2FF10BD38B500240094AD
:101B800000F0AAF938BD000070B5064614481446A6
:101B900000680D46C07B03280BD009204004114A81
:101BA000611991421AD87F2C06D833462A4621461D
:101BB00012E013200004F2E7020C00210A4800F0B2
:101BC0006EF9094822460021001D00F068F91D2029
:101BD00033462A4600210004FFF7CFFF70BD000006
:101BE00024000020FF03000004001F00F8B5224F6E
:101BF0000024204A2146384600F051F91023FF22E4
:101C000000213846FFF75CFF0025661E1420FFF711
:101C10005FFC194800211430FFF7A0FF012804D011
:101C20006D1CEDB2032DF1D3344600221146384627
:101C300000F043F9104801220021143000F03DF972
:101C40000123FF2202213846FFF73AFF0A4800210C
:101C50000830FFF773FF094DA84200D1344606480B
:101C600000211030FFF76AFFA84200D13446204619
:101C7000F8BD0000010002000C000400FFFFFF1F80
:101C800070B504000BD002218843CD1E01280DD071
:101C9000042810D008282AD0102826D12CE00023B0
:101CA0001A461946022000F00FF92AE000231A46CE
:101CB0001946042003E000231A4619460A2000F0C2
:101CC00003F903214420FFF749FF000719D500233A
:101CD0001A461946184600F0F7F8A00705D4002365
:101CE0001A461946022000F0EFF8284670BD00237E
:101CF0001A4619460820E2E700231A46194606202C
:101D0000DDE7002070BD0000F8B51C4C012817D09D
:101D1000271F25051A4E022819D00123FF22002172
:101D20003846FFF7CDFE2B46324600212046FFF70E
:101D3000ADFE00237F2202212046FFF7C1FEF8BD41
:101D40000520FFF7EDFD0123FF221946F4E70323E9
:101D5000FF2200213846FFF7B3FE2B463246002112
:101D60002046FFF793FE00237F2202212046FFF743
:101D7000A7FE0520FFF7D4FDF8BD00000800110004
:101D8000FFFEFFFF10B50A4B002803D0094A0221CD
:101D9000184609E0084A0221184600F080F8064A71
:101DA0000348603A0021801C00F079F810BD000063
:101DB000100011007488D2047408D200F8B50546EA
:101DC000C107184A1848194E20D009239B01002149
:101DD000FFF75CFE1548212300229B04D24300211B
:101DE0001238FFF753FE3413114FA80700D5114CDA
:101DF00000212246304600F052F8A80705D5BC4322
:101E000022460021304600F04AF8F8BD002319466A
:101E1000FFF73CFE0023084A19463046FFF724FE30
:101E2000F8BD00003FF0FFFF0000050016001100A4
:101E300000000F0010010F00FFFE000070B5052527
:101E400004462D0400212846FFF778FE0A49084081
:101E50000246E00702D0012080040243A00702D519
:101E6000092000030243600701D51220024300212C
:101E7000284600F014F870BDC00FE0FF10B5024610
:101E80000121282000F019F810BD08B56B461A7022
:101E9000120A5A7089B2022200F016F808BD38B54D
:101EA00000236C46E254120A5B1C042BFADB89B255
:101EB0002346042200F008F838BD07B589B202AB0A
:101EC000012200F001F80EBD38B50124E4030094AE
:101ED00000F002F838BD0000FFB5074616467A1834
:101EE00083B0D1025306C90E5B0E0C981F2929D866
:101EF0007F2B27D831221202964223D20122D2030D
:101F000090420AD0002808D0541CA04205D0941C4E
:101F1000A04202D0D41CA04214D149029C0021430B
:101F200004460C43250A6C4625712C468507AD0FE7
:101F30000D4369464D71002E02D0002B0AD00DE0F2
:101F4000904201D0FEF726F97900812319436B46B0
:101F5000197114E0904211D000280FD040210C4399
:101F600069460C7102242A492A4D431A88420DD031
:101F700007DC002828D0904207D107E00C7101242B
:101F8000F1E7012B02D0022B00D0FEE72868007D8C
:101F9000002812D00022214601A8FFF7D5FC0246F6
:101FA00031460698FFF7D0FC0090324601A9204642
:101FB000069B00F093F907B0F0BD324601A9204618
:101FC000069B00F05BF9F6E7324601A92046069B26
:101FD00000F074F82868007D0228ECD1182FEAD0B0
:101FE0000022214601A8FFF7AFFC024631460698C1
:101FF000FFF7AAFC044600211820FFF7AFFD84423A
:10200000D9D02868406A0028D5D08047D3E700009F
:1020100001800000240000204843032A02D1B5219A
:102020004843C00941050122490D92028918C00A9E
:102030005200914200D3401C70470000FEF756FB4F
:10204000FFF79FF9FFF728F8FFF77CF8FF20F5303E
:10205000FEF760FAFFF734FA00F00AF8002000F00B
:102060008FF8024800688047FEE70000100000205B
:10207000034980200860BFF34F8FBFF36F8F704715
:1020800080E100E010B504498020086000220321AF
:102090000720FEF785FB10BD00E100E000B507203A
:1020A000FEF726FA00BD000010B503490820C861FC
:1020B0000846FEF780FE10BD28000020FFB581B065
:1020C0001E4614460746FFF70DFA00901C48FEF71F
:1020D0006FFE0128FAD10520002210210007FEF72B
:1020E000F1FA002508E0029800234119DB430122A0
:1020F0001348FEF707FF6D1CBD42F4DB10480022B9
:102100002146641EA4B200290ED001688B68DB430F
:102110009B07FBD4CA6001688B68DB43DB07FBD1FC
:10212000C9683170761CEBE70520012210210007F9
:10213000FEF7C8FA0098FFF7CFF9002005B0F0BD10
:102140002800002010B586B00120009011200190D9
:10215000002005242407039069462046FEF704FA70
:10216000002201212046FEF7ADFA012000F07CF8A4
:10217000002000F005F80220FEF7CCF906B010BDF3
:1021800010B503460122052086B000210007002B70
:10219000009208D011221204029101926946FEF7C2
:1021A000E3F906B010BD02910221112203910192C0
:1021B00069460446FEF7D8F9012211462046FEF78B
:1021C00081FAEEE7FFF770FFFFF7BCFF0220FFF791
:1021D000D0F8FFF7A1F90028FBD00020FFF7C4FBDF
:1021E000401C0ED00320FFF729FE0320FFF7E6FD79
:1021F0000020FFF7C7FD1848FFF7FCF9002801D0C1
:10220000FEE7FEE7154C0125154EAD037F2115486D
:10221000FDF7E6FF0020FFF733FD00214420FFF724
:102220008DFC2042F9D0400413D500214C20FFF74B
:1022300085FC8005800D7F2805D8801E81B2002294
:102240000848FFF7A1FC2A4600214420FFF727FE9B
:10225000DCE73246F8E700001400002000D0052437
:10226000009005248C0000200C214843002101E04F
:1022700000BF491C8142FBD300207047FFB581B0ED
:102280001446FFF72FF905461348FEF791FD012884
:10229000FAD105263607002210213046FEF712FA41
:1022A0000027FF433B460C48019A0299FEF72AFE9D
:1022B000002C05D03B46224607480499FEF722FE33
:1022C000012210213046FEF7FDF92846FFF704F9F8
:1022D000002005B0F0BD000028000020FFB581B04F
:1022E0001D460646FFF7FEF804461448FEF760FD5B
:1022F0000128FAD105273F07002210213846FEF7B2
:10230000E1F90A2332460D480299FEF7FBFD0A2344
:1023100029460A48039AFEF7F5FD0A2301220AA975
:102320000648FEF7EFFD012210213846FEF7CAF9F4
:102330002046FFF7D1F8002005B0F0BD28000020AE
:1023400070B5420064414B005C41120E39D01B0E47
:1023500038D0FF2A3CD0FF2B3AD040024902400A35
:10236000490A060045184E43000A090AD218484394
:10237000ED017F3A0104731A4019190C4318990FA3
:1023800004D001215B0849075B1A521CD80904D309
:10239000401CF50301D19D0607D0FF2A08D2D505C0
:1023A00006D0E4072043401970BD0125A843F4E797
:1023B000002A01DCE00770BD2402FF202043C00595
:1023C00070BD1B0EFF2A03D0FF2B01D0E00770BDAC
:1023D000FF2645003606B54206D84D00B54203D863
:1023E000D218FF2A00D0E7E7004870BD0000C07F88
:1023F00000000000000000000000000000000000DD
:1024000000000000000000000000000000000000CC
:1024100001000000020000000300000004000000B2
:10242000060000000700000008000000090000008E
:102430000004A8050008500B0010A11600200000A1
:10244000602400080000002028000000FC000008B4
:1024500088240008280000208808000018010008CF
:102460000100000004000000000000000024F4004F
:1024700000000000050500090901010000008100BD
:08248000000100000C01002026
:04000005080000B936
:00000001FF
